:020000040800F2
:10000000700A0020E90100081F3300087D2F000856
:100010001D330008011400083138000800000000FA
:100020000000000000000000000000002333000872
:100030003B140008000000002133000825330008AD
:10004000030200080302000803020008030200087C
:10005000030200080302000803020008030200086C
:100060000302000803020008030200080514000848
:10007000030200080302000803020008030200084C
:10008000030200080302000803020008030200083C
:100090000302000803020008030200083D140008E0
:1000A000030200080302000803020008030200081C
:1000B000030200080302000803020008030200080C
:1000C00003020008030200080302000803020008FC
:1000D0000302000825380008030200080302000894
:1000E00003020008030200080302000800F002F8FF
:1000F00000F06AF80AA090E8000C82448344AAF158
:100100000107DA4501D100F05FF8AFF2090EBAE855
:100110000F0013F0010F18BFFB1A43F0010318473B
:10012000D46C0000F46C00000A444FF0000C10F88E
:10013000013B13F0070408BF10F8014B1D1108BF65
:1001400010F8015B641E05D010F8016B641E01F805
:10015000016BF9D113F0080F1EBF10F8014BAD1C55
:100160000C1B09D16D1E58BF01F801CBFAD505E073
:1001700014F8016B01F8016B6D1EF9D59142D6D3CD
:10018000704700000023002400250026103A28BFF5
:1001900078C1FBD8520728BF30C148BF0B607047F9
:1001A000662906F05084732900F0418300207047CF
:1001B0001FB500F041FB04000020002105F034FBD6
:1001C000E0601FBD10B510BD00F03AFC1146FFF70E
:1001D000EFFF04F04DFA00F058FC03B4FFF7F2FF14
:1001E00003BC00F09BFC0000094880470948004719
:1001F000FEE7FEE7FEE7FEE7FEE7FEE7FEE7FEE7D7
:10020000FEE7FEE704480549054A064B7047000033
:10021000A1330008ED00000870040020700A0020DF
:1002200070060020700600200FB41CB5074B06AA0C
:100230007B4469460090059800F0CFFA002069469B
:1002400000F0DEFA1CBC5DF814FB0000CD050000D8
:100250002DE9F0410E460446002020622046E16868
:10026000884730B3252805D0D4E901219047206A7A
:10027000401CF2E7E168204600278847050018D0B7
:10028000A5F14100192802D820354FF40067324605
:10029000294620462760FFF783FF40B1012804D09C
:1002A000F61D26F007060836D8E7361DD6E728469D
:1002B000DAE7206ABDE8F08170B50C460546012AF0
:1002C00005D02878800600D5EA69002302E00123E2
:1002D00005E05B1C934202D2E05C0028F9D1A869DA
:1002E000E618C01AA861286A184428622846AFF3A5
:1002F000008004E0D5E9012114F8010B9047B442D5
:10030000F8D32846AFF3008070BD10B5431C02E05F
:1003100010F8011B71B18107FAD14FF0013202C808
:100320008C1A8C4314EAC211F9D0C01A0A0603D001
:10033000C01E10BDC01A10BD0A0401D0801E10BD21
:100340000902FCD0401E10BD4FF0000200B513465C
:1003500094469646203922BFA0E80C50A0E80C50E5
:10036000B1F12001BFF4F7AF090728BFA0E80C5096
:1003700048BF0CC05DF804EB890028BF40F8042B8F
:1003800008BF704748BF20F8022B11F0804F18BFFC
:1003900000F8012B704770477047704710B500F0A8
:1003A0004FFA006810BD10B5044600F049FA046029
:1003B00010BD70472DE9FF4F0C461E464FF0FF372A
:1003C0008BB0D2E90001DDF860800A908A46C1F363
:1003D0000A5505B93D46002108464FF00000BAF124
:1003E000000F00F4400005DA00EB80004FF44001FC
:1003F00001EA50004FEA9059B9F1010F00DDB9460A
:100400000A9850EA4A000ED044F61050A5F2FF3583
:1004100045432F14B8F1000F1ED07542291E1EDD72
:10042000C9F100021CE0B8F1010F4FF0000001D04B
:10043000302103E0F24305E02154401CB042FBDBD5
:1004400030460022002121540B99C1F80880C1E9EF
:1004500000200FB0BDE8F08FBD1B6D1CDEE74A46E3
:1004600000DA694206A800F075FA06AB93E80700C7
:1004700003AB83E8070050460A9900F056FB8DE86D
:100480000700A0F500501F3800900398002D0ADDEA
:1004900042F21F014A460844002303A9039068461C
:1004A00000F0BFFD09E0A0F500504A461F380023C8
:1004B00003A90390684600F0C9FD8DE80700000419
:1004C000000C03D04FF0FF30410800E01046B8F1B7
:1004D000000F03D00022009215461EE0751E05D4C1
:1004E00000F0B2F9303262556D1EF9D5B3460122E3
:1004F000084302D000227F1C04E02078302801D17C
:1005000000227F1E002A099784D01DE0112D07DAF2
:1005100000F09AF9303262556D1C50EA0102F5D1B3
:10052000084302D00098C8B10EE00021681E05E023
:10053000235C625C63542254401E491C8142F7DBF9
:10054000AB46A81B401E0990002004F80B000B9836
:10055000099AC0F80880C0E9002B7AE711264FF00D
:10056000000857E72DE9F04F88460446D21D22F0D7
:10057000070191B0D1E90001CDE90A0103F059F971
:1005800002460B98C00F01D02D2007E0206881079C
:1005900001D52B2002E0202101EAC000032A0990A6
:1005A00001D0072A05DB03464146204600F092F9B8
:1005B0000BE12078800601D5E06900E00620B8F163
:1005C000650F814606D0B8F1660F18D0B8F1670FF5
:1005D00070D131E00020B9F1110F009001DB11233F
:1005E00001E009F101030AAA01A90CA8FFF7E2FE44
:1005F000DDE90C70002609F10105834647E0012082
:100600004B4600904FF000470AAA01A90CA8FFF73B
:10061000D1FEDDE90DB00C995D46002610B909F157
:1006200001000D18B9EB050003D4C0F1FF3609F144
:100630000105A5EB09002BE0B9F1010F01DA4FF03C
:1006400001090020B9F1110F0090484601DD112386
:1006500000E003460AAA01A90CA8FFF7ABFEDDE9FA
:100660000C704D4600268346207800070AD4AB451F
:1006700000DA5D4601A8012D04DD411911F8011CC5
:10068000302907D04F4502DA17F1040F04DA0120B0
:1006900082460FE06D1EEEE7002F02DCED1B3E44AC
:1006A00003E0781CA84200DD7D1CB81B00F1010AA4
:1006B0004FF000472078000703D4AA4501DB4FF034
:1006C000FF3A0021B7F1004F0DF143088DF84310B8
:1006D00024D002202B23002F01DA7F422D230A2170
:1006E000021EA0F1010000DC5FB197FBF1FC97FB5B
:1006F000F1F201FB1C7C17460CF1300C08F801CD1F
:10070000EEE7A8F1010003702188090501D5452114
:1007100000E06521A0F1010800F8011C09980FA96B
:10072000A1EB0807FF1D00B10120411901EBEA70A0
:10073000A1693844081A401EA0612078C00602D47E
:100740002046AFF30080099828B1D4E901219047F1
:10075000206A401C20622078C00622D52046AFF3D4
:1007600000801EE0002E04DBB34502DD01A8805DA1
:1007700000E03020D4E901219047206A401C20622B
:10078000761CAAF101005FEA000A0AD100F054F8D1
:10079000C0680168405CD4E901219047206A401C90
:1007A0002062281EA5F10105DCDC07E0D4E9012167
:1007B00018F8010B9047206A401C2062381EA7F1F0
:1007C0000107F3DC2046AFF30080032011B041E6BF
:1007D00001694A1C02610878704700B58FB0CDE905
:1007E00001310021059105497944CDE903101146F5
:1007F0006846FFF72DFD0FB000BD0000E5FFFFFFCD
:100800000A6802F8010B0A60704710B5436913B11A
:10081000AFF3008001E0FFF74FFD012010BD12781B
:1008200000F124010A7000224A700122EDE71168EC
:100830004FF0FF32E9E70000004870473004002025
:10084000004870471004002030B5B0F10A024FEAAA
:10085000900E71F100034EEA817EB0EB0E0061EB69
:1008600091014FEA101E4EEA017E10EB0E0041EBA3
:1008700011114FEA102E4EEA016E10EB0E0041EB03
:1008800011214FEA104E4EEA014E10EB0E0041EBE3
:100890001141401841F100014FEAD00040EA417097
:1008A0004FEAD10110EB80054FEA810444EA9074CD
:1008B00044EB01046D1944EB0404521BA3414FF0B7
:1008C000000348BF0A3200D530BD401C41F1000191
:1008D00030BD00002DE9F0411F46044603260168A3
:1008E000072A01F4006004DB08B116A505E016A58F
:1008F00003E008B115A500E015A521F01000206067
:10090000A069C01EA0610FB1401EA0612046AFF3D8
:1009100000804FB1D4E9012138469047206A401C3D
:100920002062C01C206206E0206AFAE7D4E90121B7
:1009300015F8010B9047761EF8D22046AFF30080E1
:10094000BDE8F0814E414E006E616E00494E46009A
:10095000696E66002DE9F047814616468AB0354833
:1009600078440DC88DE80D0032487844801C03ACF3
:100970000DC884E80D0041F69B300844372190FBF8
:10098000F1F290FBF1F5A5F1800501FB12041B3C8F
:1009900002D56442012000E00020DFF898A08046E4
:1009A0000027FA44AAF1BE0A0EE0E0070AD0324658
:1009B000684607EB470101230AEB810100F046FB83
:1009C0008DE8070064107F1C002CEED1194F7F4486
:1009D000AE3F19E0E80715D007EB04100DF1180A37
:1009E00090E80E008AE80E00C068F04201D1981924
:1009F00008903246012306A903A800F027FB03ABA9
:100A000083E807006D10641C002DE3D14FF0010353
:100A100032466946B8F1000F03A802D000F001FB8E
:100A200001E000F013FBC9E90001C9F808200AB091
:100A3000BDE8F0877864000000487047100400208B
:100A40007546FFF7F9FFAE4605006946534620F0AC
:100A50000700854618B020B5FFF7D4FBBDE820405D
:100A60004FF000064FF000074FF000084FF0000B6A
:100A700021F00701AC46ACE8C009ACE8C009ACE81D
:100A8000C009ACE8C0098D46704710B50446AFF305
:100A900000802046BDE81040FFF79FBB4FF0013CAF
:100AA00050F8042B51F8043B9A4221D1A2EB0C03DD
:100AB000934313EACC1317D150F8042B51F8043B9D
:100AC0009A4215D1A2EB0C03934313EACC130BD13A
:100AD00050F8042B51F8043B9A4209D1A2EB0C03C5
:100AE000934313EACC13DBD04FF00000704700BFF4
:100AF000D01A01BAB1FA81F101F0180122FA01F01D
:100B0000CB40C1F12001DBB2C0B2C01A2CFA01F314
:100B1000D11A914311EAC311E6D170470149182057
:100B2000ABBEFEE72600020070475FEA400C08BF3C
:100B300091F0000F4FEA8C234FEAC12243EA515152
:100B40004FEA1C5018BF00F5F0404FEA300018BFC4
:100B500041F000415FEA6C5C00F02980BCF1FF3F8E
:100B600008BF40F080407047130C06BF12044FF0DE
:100B7000100C4FF0000C130E04BF12020CF1080C05
:100B8000130F04BF12010CF1040C930F04BF920069
:100B90000CF1020CD30F04BF52000CF1010C1146F2
:100BA0004FF00002A0F11F00A0EB0C00704711F005
:100BB000004F08BF704731F000413FF4D5AF0B0C38
:100BC00006BF09044FF0100C4FF0000C0B0E04BFD1
:100BD00009020CF1080C0B0F04BF09010CF1040C05
:100BE0008B0F04BF89000CF1020CCB0F04BF49002E
:100BF0000CF1010CCCF12003A0EB0C0022FA03F362
:100C000002FA0CF241EA030100F10100704720F002
:100C10007F4C80EA030023F07F47ACEB070303F52A
:100C20007C5300F0004003F1FF032DE980494FEAB7
:100C3000154B09B44FEA144325EA0B4E24EA034846
:100C40000FF2042606EB132749083E785FEA3202CA
:100C500003FB0667C7F5000707FB06F64FEA5437A4
:100C60004FEAD64606F1020607FB066CCCF1005CA3
:100C70004FEA1C472CEA074C07FB06F40CFB06F571
:100C800004EB15464FEA961634BF00204FF00040A3
:100C90004FEAD13706FB07FC4FEA1C4C0CFB0BF765
:100CA000D21B03FB0CF761EB07010CFB0EF7B0EB5B
:100CB000074072EB17420CFB08F734BFA2EB074268
:100CC000B2EB074261EB17414FEA0C444FEA910740
:100CD00006FB07FC4FEA1C4C0CFB0BF7B0EBC740C4
:100CE00072EB573203FB0CF734BFA2EBC742B2EBF7
:100CF000C74261EB57310CFB0EF7B0EBC70072EB4C
:100D000057720CFB08F734BFA2EBC702B2EBC70265
:100D100061EB5771039F4FEA816141EA921104EB45
:100D2000CC044FEAD1374FEA826206FB07FC42EA65
:100D300090124FEA80604FEA1C4C0CFB0BF7D21B61
:100D400003FB0CF761EB07010CFB0EF7B0EB074060
:100D500072EB17420CFB08F734BFA2EB0742B2EB71
:100D6000074261EB17414FEA8C554FEA910704EBBC
:100D70009C2406FB07FC4FEA1C4C0CFB0BF7B0EB6A
:100D8000C74072EB573203FB0CF734BFA2EBC742EC
:100D9000B2EBC74261EB57310CFB0EF7B0EBC7006B
:100DA00072EB57720CFB08F734BFA2EBC702B2EB31
:100DB000C70261EB577115EB4C254FEA816141EA9F
:100DC00092114FEA82624FEAD13742EA901206FB53
:100DD00007FC44F100044FEA80604FEA1C4C0CFB16
:100DE0000BF7D21B03FB0CF761EB07010CFB0EF7B3
:100DF000B0EB074072EB17420CFB08F734BFA2EBD5
:100E00000742B2EB074261EB174115EB1C154FEAA5
:100E1000813141EA92414FEA823242EA90424FEAFE
:100E200080304FEA0C7644F1000448EA03434EEA6E
:100E30000B484FF0000EB2EB080C71EB030724BF18
:100E4000624639464EEB0E0E4FF0000B0018524131
:100E500049414BEB0B0BB2EB080C71EB03077BF139
:100E6000000B24BF624639464EEB0E0E4FF0000BCE
:100E70000018524149414BEB0B0BB2EB080C71EBE4
:100E800003077BF1000B24BF624639464EEB0E0E82
:100E900051EA020718BF46F0010616EB0E7655F12F
:100EA000000254F1000103D5BDE88901BDE80088C6
:100EB000BDE88901BDE80048B619524141EB010186
:100EC000A3F10103704780807F7E7D7C7B7A7978F7
:100ED000777676757473727171706F6E6E6D6C6CFF
:100EE0006B6A6A69686867666665646463636261A1
:100EF0006160605F5F5E5E5D5D5C5C5B5B5A5A5922
:100F0000595858575756565555555454535352528D
:100F10005251515050504F4F4F4E4E4D4D4D4C4CE5
:100F20004C4B4B4B4A4A4A4949494848484747472E
:100F3000474646464545454444444443434343426B
:100F4000424242414141002B9C4630D477002BD095
:100F50001CB54FEA370703B44FF010004FF01001F3
:100F6000BAF1000F06D0BCF1000FDCBF40F0080062
:100F700040F008014FF000000FBCBDE810400BF13D
:100F8000010BBBF1010F08BF5FEA170722BF12F187
:100F9000010211F101014FF0004143F1000300F0A3
:100FA000004043EA00007047F9D35708D0E746EA0B
:100FB000064613F1400F4FEA16461FDD13F1200FCE
:100FC000DFBF16430A46002120335B42BED0C3F187
:100FD000200746EA064602FA07F74FEA164646EAAF
:100FE0000706C3F1200722FA03F201FA07F721FAF4
:100FF00003F14FF0000342EA0702A7E746EA0206C0
:1010000046EA06464FEA164646EA0106BCBF46EAED
:101010000646360C4FF000034FF000024FF000017F
:1010200094E72DE9804C9A46934670B491E83800D5
:1010300007C831EA400C48BF34EA430C03D5FFF738
:10104000E6FDFFF780FFF0BCBDE8008C2DE9804C89
:101050009A46934670B491E8380007C810F0804F64
:1010600008BF13F0804F03D100F005F8FFF76BFFC6
:10107000F0BCBDE8008C20F07F4780EA030023F03D
:101080007F4C07EB0C03A3F57C5300F00040A3F169
:10109000FE0392F0000F00F0B38095F0000F00F017
:1010A00077802DE901494FEA11404FEA144621EAC1
:1010B000004800FB06FC24EA064708FB06F607FB8F
:1010C00008F800FB07F718EB06484CEB164C4FEA04
:1010D000124B18EB07484FEA15464CEB174022EA33
:1010E0000B4E0BFB06FC25EA06470EFB06F607FB3C
:1010F0000EFE0BFB07F71EEB064E4CEB164C4FF0AB
:1011000000061EEB074E4CEB174B18EB0B0840F19B
:10111000000018EB0E0B58EB000840F100008F1A8E
:101120004FF000013CBFC943661B14BFB5EB040C74
:1011300000213CBFC943F61B4FEA17444EEA8E0E0E
:1011400027EA04454FEA1C4704FB07622CEA074CD8
:1011500005FB07F70CFB05F604FB0CFC16EB07463A
:1011600042EB174216EB0C4642EB1C421BEB060609
:1011700058EB0202414146EA9E0601D5BDE80189CD
:10118000B619524141EB0101A3F10103BDE8018908
:101190004FEA14454FEA114724EA054621EA074C75
:1011A00005FB07F406FB07F70CFB06F105FB0CFC3F
:1011B00011EB074144EB17444FEA124711EB0C4186
:1011C00044EB1C4422EA074C05FB07F206FB07F739
:1011D0000CFB06F605FB0CFC16EB074642EB174230
:1011E00016EB0C4642EB1C456A1854F1000148BF4F
:1011F0007047B619524141EB0101A3F10103704759
:1012000095F0000F37D04FEA11424FEA144721EA18
:10121000024624EA074C02FB07F106FB07F70CFB2A
:1012200006F402FB0CFC14EB074441EB17414FEAB8
:10123000154714EB0C4441EB1C4125EA074C02FB1B
:1012400007F506FB07F70CFB06F602FB0CFC16EB9A
:10125000074645EB174516EB0C4645EB1C421219A9
:1012600051F1000148BF7047B619524141EB0101ED
:10127000A3F1010370474FEA14454FEA114724EAEE
:10128000054621EA074C05FB07F106FB07F70CFBB7
:1012900006F24FF0000605FB0CFC12EB074241EB97
:1012A000174112EB0C4251EB1C4148BF704792189A
:1012B00041EB0101A3F101037047000070B5044642
:1012C00000688168C943C90717D1816821F001010D
:1012D000816000F05FFD05460AE000BF00F05AFDA6
:1012E000401B022804D920688068C043C00706D08C
:1012F00020688068C043C007F0D0002070BDA06A9D
:1013000040F01000A062E06A40F00100E0620120BD
:1013100070BD10B50146406A826A12F0500F05D0C8
:10132000006A026BBDE8104008461047816A41F42C
:101330000071816201688968C1F3424107290CD1BB
:10134000017B51B9816A21F480718162816AC9048B
:1013500003D4816A41F00101816200F0F3F810BD0D
:1013600010B5406A816A41F040018162C16A41F072
:101370000401C16200F0E8F810BD10B5406A00F049
:10138000E2F810BDF8B500260446009600688168B2
:10139000C943C9072DD0816841F001018160164819
:1013A00016490068B0FBF1F000E0401E00900028F4
:1013B000FBD100F0EFFC054616E000BF00F0EAFCB0
:1013C000401B022810D920688068C043C0070BD09A
:1013D000A06A40F01000A062E06A40F00100E06204
:1013E00084F824600120F8BD20688068C043C007ED
:1013F000E4D10020F8BD0000FC01002040420F00B5
:10140000FEE70000014800F07DBA0000CC03002098
:1014100030B590F840500124AC40C56B6C60046856
:1014200063604368102B036803D099600068C26052
:1014300030BD9A600068C16030BD7047202000F068
:10144000A3BB72B6FEE70000F8B50024009490F844
:1014500024202546012A12D0012280F824204A683F
:101460001F23072A0DD20668776B521E02EB8202F9
:1014700093409F430B6893401F43776319E002201A
:10148000F8BD06680D2A0AD2376BD21F02EB820222
:1014900093409F430B6893401F43376309E0F76A0B
:1014A0000D3A02EB820293409F430B6893401F4327
:1014B000F7620A68072306680A2A0AD3F7680A3A15
:1014C00002EB420293409F438B6893401F43F760B7
:1014D00008E0376902EB420293409F438B689340D8
:1014E0001F4337610A68102A01D0112A20D1124BFC
:1014F00002689A4217D193681B0219D4936843F487
:10150000000393600968102912D10C490C4A09683C
:10151000B1FBF2F101EB8101490000E0491E0091AD
:101520000029FBD104E0816A41F02001816201249D
:1015300080F824502046F8BD00240140FC01002022
:1015400040420F0070477047704700002DE9F0419E
:101550004FF0000704003D467ED0A06A002628B95F
:10156000E66284F82460204600F07EF82046FFF70B
:10157000A5FEA16AC90600D420B1A06A40F01000FF
:10158000A06269E0A16A21F4885141F00201A162E0
:101590006268E169237B0A4347EA43010A43A16881
:1015A0004FF48077B94209D0012907D05FF00001DC
:1015B00094F814C0BCF1010F02D00AE03946F7E7F5
:1015C000F3B1A36A43F02003A362E36A43F001038B
:1015D000E3622368D3F804C02CF4694C4CEA010C94
:1015E000C3F804C021688B68DFF870C003EA0C03FD
:1015F00013438B60A168B9420BD0012909D00CE0DC
:10160000DFF85CC0A3690CEB43330B4343F4006188
:10161000DFE7218A0D05A5F580152168CB6A23F443
:1016200070032B43CB62216889680E4B19409142AD
:1016300008D1E662A16A21F0020141F00101A16234
:10164000BDE8F081A06A20F0020040F01000A06226
:10165000E06A40F00100E0620120F1E7FDF7E1FF00
:1016600000E0FFFFFE0E1FFF70B586B000250646A6
:1016700000950195029503950068214988423DD166
:101680002049886940F400708861886900F400701E
:101690000490886940F004008861886900F00400C3
:1016A0000490886940F0080088618869032400F08C
:1016B000080004903F20CDE900046946124800F07C
:1016C0006FFA0120CDE900046946104800F068FA7D
:1016D000104C0F48C4E900058020C4E902504000C6
:1016E0002061800060612020C4E90605204600F0EA
:1016F000B3F908B1FFF7A5FE3462666206B070BDAB
:10170000002401400010024000080140000C01408C
:1017100008000240CC0300202DE9F047894604462A
:101720003B4900683B4F0E1D9046884201D0B842AD
:1017300007D1306810F4702F03D001252846BDE88A
:10174000F08794F8240001280CD0012084F82400AC
:101750002046FFF717FE05004FF0000004D084F884
:101760002400EBE70220EAE7A16A40F60162914318
:1017700041F48071A1622168B94218D1326812F433
:10178000702F14D0A16A41F48011A162316849051B
:1017900005D5A16A21F4005141F48051A162A16AEA
:1017A000C9040AD5E16A21F00601E16206E0A26AF5
:1017B00022F48012A2624968E9E7E06284F824001A
:1017C000216A15488862216A1448C862216A14484F
:1017D000086321686FF0020008602068816841F4A6
:1017E00080718160216843464A464C31206A00F08E
:1017F00061F920688168C1F342410729816803D0FB
:1018000041F48011816099E741F4A001FAE70000FA
:101810000024014000280140131300087B13000836
:101820006113000810B590F821100022022905D09C
:101830000421816380F82020012010BD01680B681D
:1018400023F00E030B6001680B6823F001030B60AB
:1018500090F84030C46B012101FA03F3636080F813
:10186000211080F82020104610BD000010B590F81F
:1018700021100024022903D00421816301243DE0CA
:1018800001680A6822F00E020A6001680A6822F004
:1018900001020A601A4A0168914201D1012121E046
:1018A000174A1432914201D110211BE0144A283208
:1018B000914201D1891515E0114A3C32914201D182
:1018C00089140FE00E4A5032914202D14FF4803118
:1018D00008E00B4A6432914202D14FF4801101E0DA
:1018E0004FF08071064A083A5160012180F82110BA
:1018F000002180F82010416B01B18847204610BDBF
:10190000080002402DE9F05FC16B0C6801680B68AC
:10191000D0F840C0042202FA0CF2494DDFF824A1AD
:10192000494E4A4FDFF828B1DFF828E122422CD097
:101930005A072AD50A68920603D40A6822F00402DC
:101940000A600168A94201D1042219E0514501D180
:10195000402215E0B14202D14FF4806210E0B9425A
:1019600002D14FF480420BE0594502D14FF480225E
:1019700006E0714502D14FF4800201E04FF0806231
:101980002F4908394A60C16A3BE04FF0020808FA63
:101990000CF818EA040F4FF000094FF0010235D09F
:1019A0005FEA837832D50B689B0605D40B6823F079
:1019B0000A030B6080F821200168A94201D10222AC
:1019C00019E0514501D1202215E0B14202D14FF476
:1019D000007210E0B94202D14FF400520BE05945B9
:1019E00002D14FF4003206E0714502D14FF40012EB
:1019F00001E04FF00072124908394A6080F82090E7
:101A0000816A00291AD0BDE8F05F0847082505FA69
:101A10000CF5254212D01B0710D50B6823F00E03DE
:101A20000B6090F84010C36B02FA01F159608263B9
:101A300080F8212080F82090016BE2E7BDE8F09F5C
:101A4000080002401C0002403000024044000240F6
:101A5000580002406C00024030B528B308C8134952
:101A600014221944B1FBF2F18900C163104981636A
:101A7000022141771A6843F6F0718A43D0E90014D5
:101A80002143D0E902452C432143046921434469A1
:101A900021438469214311431960002141630122DC
:101AA00042770177084630BD012030BDF8FFFDBF09
:101AB0000000024070B5044690F82000002501287F
:101AC0000CD0012084F8200094F821600020012E21
:101AD00006D084F820000225284670BD022070BD83
:101AE000022684F82160A0632068066826F00106BB
:101AF00006602046FFF78CFCE06A00282068016839
:101B000002D041F00E0106E021F0040101602068DE
:101B1000016841F00A0101602068016841F001019B
:101B20000160D9E770B5044600F034F90546601C41
:101B300002D004480078044400F02CF9401BA04275
:101B4000FAD370BDF001002070B5202811D10B4EE2
:101B50002021304600F014F9094C0A4D012809D023
:101B60002021304600F00CF9002802D12068406A9C
:101B7000A88070BD2068406A688070BD000C01407C
:101B80000803002000000020044910B50A68024242
:101B900002D00860FFF7D8FF10BD00001404014018
:101BA0002DE9F84FDFF8B891002409F1040A0AF191
:101BB000040B23460F270BF1040EC9E00125A540B5
:101BC0002A40AA427DD1674ED1F804C0ACEB06088A
:101BD000B44532D014DCBCF1030F3AD009DCBCF1BF
:101BE000000F2AD0BCF1010F1CD0BCF1020F31D183
:101BF0001DE0BCF1110F17D0BCF1120F2AD119E072
:101C0000B8F5881F19D006DCB8F5803F15D0B8F5B7
:101C1000801F1FD111E0B8F5001F0ED0B8F5041FCA
:101C200018D10AE0CB6815E0CB681B1D12E0CB6829
:101C300008330FE0CB680C330CE08B682BB1012B21
:101C40004FF0080303D0456104E0042302E005617E
:101C500000E00023FF2A01D8064601E000F1040657
:101C60004FEA840501D9A5F12005D6F8008007FACE
:101C700005FC28EA0C0803FA05F548EA0508C6F849
:101C800000804D68ED0062D5374DAE6946F0010623
:101C9000AE61AD6924F0030605F001050095334DF2
:101CA00006EB050CDCF80850A607360F07FA06F815
:101CB00025EA0805DFF8B880404503D14FF0000859
:101CC00017E044E0DFF8AC80404502D14FF0010856
:101CD0000FE0DFF8A480404502D14FF0020808E091
:101CE000DFF89880404502D14FF0030801E04FF043
:101CF000040808FA06F848EA0508CCF808804D6898
:101D0000D9F80060ED034D4601D5164300E0964337
:101D10002E604D68DAF80060AD03554601D51643D4
:101D200000E096432E604D68DBF80060ED025D46F2
:101D300001D5164300E096432E604D68DEF8006042
:101D4000AD02754601D5164300E096432E60641C33
:101D50000D682A46E5407FF431AFBDE8F88F0000FA
:101D6000000401400000111000100240000001407A
:101D700000080140000C0140001001400014014027
:101D80008068084000D0012070470AB101617047A7
:101D90000904FBE70148806870470000F00100205B
:101DA000024881680278114481607047F001002088
:101DB000074810B5016841F010010160032000F0F0
:101DC00075F80F2000F006F800F024F8002010BD90
:101DD0000020024070B50D4D04464FF47A7128780A
:101DE000B1FBF0F00A490968B1FBF0F000F062FBCA
:101DF00048B9102C07D200222146501E00F036F8B8
:101E000000206C6070BD012070BD0000F00100205A
:101E1000FC0100200C4808B5816941F00101816195
:101E2000816901F001010091C16941F08051C161F6
:101E3000C06900F0805000900448416821F0E061E2
:101E400041F00071416008BD0010024000000140F7
:101E5000002809DB00F01F020121914040098000A9
:101E600000F1E020C0F8001170470000F0B40E4B04
:101E70001B680C46C3F30223C3F10705042D00D9E8
:101E80000425191D072901D2002300E0DB1E0126CD
:101E900006FA05F1491E214099409E40761E1640E3
:101EA0003143F0BC01F0D9BC0CED00E0064900F074
:101EB000070208684FF6FF03184040EA0220034A71
:101EC00010430860704700000CED00E00000FA05C8
:101ED0002DE9F84305460078354CC00754D0E06939
:101EE0000026C00008D4E06940F08050E061E0695D
:101EF000012600F0805000902E480168C90512D4D8
:101F00000168804641F480710160FFF743FF074696
:101F100005E000BFFFF73EFFC01B642823D8D8F8B8
:101F20000000C005F6D5206A10F4407021D0A988C1
:101F300001F4407181421CD0206A1F49012220F423
:101F400040700A6000220A602062C00711D0FFF7CB
:101F500021FF074641F2883808E000BFFFF71AFF6B
:101F6000C11B414502D90320BDE8F883206A8007E0
:101F7000F4D5206A696820F44070084320621EB1DD
:101F8000E06920F08050E0612878800705D560681E
:101F9000A96820F44040084360602878C00605D551
:101FA0006068E96820F48000084360600020DBE797
:101FB0000010024000700040400442422DE9F0470A
:101FC0000F46050061D0434E306800F00700B8426C
:101FD00009D2306820F0070038433060306800F0E4
:101FE0000700B84251D128683B4C810712D5400701
:101FF00003D5606840F4E06060602878000703D58E
:10200000606840F4605060606068A96820F0F0008B
:10201000084360602878C00728D06868012810D07D
:102020002168022810D0890700292EDA616821F082
:10203000030101436160FFF7ADFE804641F288393C
:102040000DE021688903EFE78901EDE7FFF7A2FEC4
:10205000A0EB0801494502D90320BDE8F08760687C
:10206000696800F00C00B0EB810FEFD1306800F030
:102070000700B8420BD9306820F0070038433060C1
:10208000306800F00700B84201D00120E5E7287869
:10209000400705D56068E96820F4E06008436060A7
:1020A0002878000706D56068296920F4605040EA66
:1020B000C100606000F038F86168084AC1F303119C
:1020C000515CC8400649086006480068FFF782FE78
:1020D0000020C2E70020024000100240866B00088A
:1020E000FC010020F401002004480549006849680B
:1020F000044AC1F30221515CC8407047FC01002032
:1021000000100240966B00080448054900684968C1
:10211000044AC1F3C221515CC8407047FC01002051
:1021200000100240966B000812A185B00FC98DE81F
:102130000F0014A0144A006804905168134801F07D
:102140000C03042B10D0082B0ED1C1F38343C90319
:102150001DF803000AD5516804AAC1F34041515C3F
:102160000A4A5043B0FBF1F005B0704708494843B4
:10217000FAE7000002030405060708090A0B0C0D24
:102180000E0F1010010200000010024000127A0031
:1021900000093D002DE9F84F040070D02078C04DB3
:1021A000C00749D06868C0F38100012807D068687B
:1021B000C0F38100022809D16868C00306D52868E9
:1021C000800339D560680028E7D035E06068B0F555
:1021D000803F0BD010B1B0F5A02F11D0286820F4AB
:1021E00080302860286820F4802002E0286840F4CD
:1021F00080302860606890B1FFF7CCFD06460AE0A9
:10220000286840F480202860F0E700BFFFF7C2FD97
:10221000801B642873D828688003F7D50CE0FFF78B
:10222000B9FD064605E000BFFFF7B4FD801B64283A
:10223000F0D828688003F7D420789A4E80074FF0B2
:1022400001094FF0000839D5686810F00C0F07D06D
:102250006868C0F38100022809D16868C00306D409
:102260002868800714D52069012808D110E020696A
:10227000B0B1C6F80090FFF78DFD074605E00AE112
:10228000FFF788FDC01B0228C4D828688007F7D54F
:102290002868616920F0F80040EAC10028600DE07C
:1022A000C6F80080FFF776FD074604E0FFF772FDF1
:1022B000C01B022823D828688007F7D4207800079D
:1022C0002CD57948A169D9B1C0F80090FFF762FD1B
:1022D000074604E0FFF75EFDC01B02280FD8686ABE
:1022E0008007F7D571484FF4FA510068B0FBF1F060
:1022F000009000BF0098411E0091FAD20EE080E0ED
:10230000C0F80080FFF746FD074604E0FFF742FDF6
:10231000C01B022875D8686A8007F7D42078400768
:1023200060D5E8690027C00008D4E86940F0805013
:10233000E861E869012700F0805000905C4801687E
:10234000C90513D40168834641F480710160FFF729
:1023500021FD824606E000BFFFF71CFDA0EB0A004E
:1023600064284ED8DBF80000C005F5D5E0680128E8
:102370000AD008B1052813D0286A20F0010028628D
:10238000286A20F0040002E0286A40F00100286278
:10239000E06841F2883B98B1FFF7FCFC82460BE015
:1023A000286A40F004002862EEE700BFFFF7F2FC65
:1023B000A0EB0A0159455AD8286A8007F6D50CE0E7
:1023C000FFF7E8FC824605E0FFF7E4FCA0EB0A011A
:1023D00059454CD8286A8007F6D41FB1E86920F027
:1023E0008050E861E06988B36968C1F3810102291E
:1023F00044D00228C6F8608004D0FFF7CBFC044626
:1024000038E034E0FFF7C6FC074604E0FFF7C2FC03
:10241000C01B02282BD828688001F7D4206AB0F5A9
:10242000803F05D16868A16820F4003008436860E7
:10243000D4E908010843696821F47411084368600D
:10244000C6F86090FFF7A6FC044606E025E000BF52
:10245000FFF7A0FC001B022809D828688001F7D5E7
:102460001BE000BFFFF796FC001B022802D90320E7
:10247000BDE8F88F28688001F4D40EE00128F7D079
:102480006868226A00F48031914204D1616A00F4E4
:102490007010884201D00120EAE70020E8E7000040
:1024A000001002400000424280044242FC01002031
:1024B0000070004010B5401EB0F1807F01D30120B4
:1024C00010BD4FF0E02460610F21601701F0C5F9E5
:1024D0000020A06107202061002010BD10B590F8F9
:1024E0003C20012A22D0012280F83C20CA688C6856
:1024F00022F4407222434C6822F4806222430C682A
:1025000022F4006222430C6922F4805222434C6977
:1025100022F400522243C969002322F480420A4374
:1025200001684A6480F83C30002010BD022010BDD4
:1025300070B590F83C20012A26D0012480F83C4058
:10254000022280F83D2003685A689D6822F07006D8
:102550000A6832435A600D4B02689A4208D0B2F1C1
:10256000804F05D00A4B9A4202D00A4B9A4204D1BE
:10257000496825F080031943916080F83D400021AF
:1025800080F83C10084670BD022070BD002C014050
:10259000000400400008004010B5040003D094F887
:1025A0003D0010B107E0012010BD002084F83C0080
:1025B000204600F01FF8022084F83D00211D20680D
:1025C00000F0F0FE012084F8460084F83E0084F814
:1025D0003F0084F8400084F8410084F8420084F809
:1025E000430084F8440084F8450084F83D0000204E
:1025F00010BD000008B50C4A01680C48914207D193
:10260000816941F400618161806900F4006009E042
:10261000074A914207D1C16941F00401C161C06913
:1026200000F00400009008BD002C014000100240A2
:102630000008004090F83D10012901D001207047AA
:10264000022180F83D1000680B49884208D0B0F1A3
:10265000804F05D00949884202D00949884204D1F7
:10266000816801F00701062903D0016841F00101EA
:102670000160002070470000002C01400004004071
:102680000008004070B5044690F83C00012817D0BF
:10269000012584F83C50022084F83D0020688268BF
:1026A00022F0770222F47F4282600868502830D0FE
:1026B0000DDC20284DD005DC98B310283BD148E034
:1026C000022070BD302844D0402834D139E0602841
:1026D00028D0702806D0B0F5805F2CD0B0F5005F10
:1026E00029D10AE0CB68D1E90121206800F09DFEE4
:1026F0002068816841F0770109E0CB68D1E90121C8
:10270000206800F092FE2068816841F48041816079
:1027100011E0CA684968206800F03CFF5021206839
:1027200007E016E0CA684968206800F044FF6021AD
:10273000206800F084FE84F83D50002084F83C00BE
:1027400070BDCA684968206800F024FF40212068F5
:10275000EFE7226801461046EBE72DE9F0410D4610
:10276000040003D094F83D0018B108E00120BDE852
:10277000F081002084F83C00204600F041F802205F
:1027800084F83D002068816844F20702914381602B
:10279000211D206800F006FE226890689169166A83
:1027A0002B68AF69034340F20330814341EA0721BC
:1027B000A868EF6908434FF6FC418843E96840EA9E
:1027C0000720014328692F6A000140EA07300843C7
:1027D00069686D6926F0220646EA0515294393606B
:1027E0002268906154F8460B0162012004F81F0929
:1027F000E0752076E0762077A0750020B7E700002E
:1028000010B586B0002400940194029403940268E9
:1028100027492848B2F1804F19D0274B9A4214D14A
:10282000CA6942F00202CA61CA6902F00202049255
:102830008A6942F004028A61896901F00401049105
:10284000C02100916946FFF7ABF906B010BDCA6917
:1028500042F00102CA61CA6902F0010204928A6967
:1028600042F004028A618A6902F0040204928A69D1
:1028700042F008028A61896901F0080104914FF46D
:10288000004100916946FFF78BF90820CDE900046B
:1028900069460A480294FFF783F90948416821F420
:1028A000407141F0E06141F480714160CDE700008A
:1028B000001002400008014000040040000C0140EC
:1028C0000000014070B590F83E60044690F83F501B
:1028D00090F8423090F84320022021B104290ED014
:1028E000012E1BD114E0012E18D1012B16D184F832
:1028F0003E0084F8420001220021206820E0012DE2
:102900000CD1012A0AD184F83F0084F8430014E076
:10291000012D03D1012B01D1012A01D0012070BD6D
:1029200084F83E0084F83F0084F8420084F84300B5
:1029300001220021206800F06BFD012204212068A3
:1029400000F066FD2068016841F00101016000208F
:1029500070BD000000B585B0002100910191029189
:10296000039100680B49884212D10B48816941F0FC
:10297000040181618069694600F0040004904FF40D
:10298000A06000900220019003900448FFF708F92E
:1029900005B000BD002C01400010024000080140BD
:1029A00070B5044690F83C000D4601280AD001207D
:1029B00084F83C0042B1042A18D0082A2AD00C2AF4
:1029C0004DD139E0022070BD206800F041FD206843
:1029D000816941F0080181612068816921F0040169
:1029E0008161206881692A69114311E0206800F043
:1029F00057FD2068816941F4006181612068816927
:102A000021F480618161206881692A6941EA02219B
:102A1000816124E0206800F06FFD2068C16941F009
:102A20000801C1612068C16921F00401C161206809
:102A3000C1692A69114311E0206800F089FD20680E
:102A4000C16941F40061C1612068C16921F48061FC
:102A5000C1612068C1692A6941EA0221C16100207F
:102A600084F83C0070BD10B5040003D094F83D001C
:102A700010B107E0012010BD002084F83C00204682
:102A800000F01EF8022084F83D00211D206800F0AF
:102A900089FC012084F8460084F83E0084F83F0059
:102AA00084F8400084F8410084F8420084F8430030
:102AB00084F8440084F8450084F83D00002010BDEF
:102AC0007047000010B50446022249B104290ED017
:102AD000082913D094F84100012816D0012010BD18
:102AE00094F83E000128F9D184F83E200FE094F8D4
:102AF0003F000128F2D184F83F2008E094F840001C
:102B00000128EBD184F8402001E084F84120012223
:102B1000206800F07DFC0F492068884203D1426C98
:102B200042F4004242642068884208D0B0F1804FED
:102B300005D00949884202D00849884204D18168F9
:102B400001F00701062903D0016841F0010101608D
:102B5000002010BD002C014000040040000800408F
:102B600070477047F8B5026804461068D168536929
:102B700010F00F0F4FF0000553D003F0010601F4E1
:102B8000907737435FD0C20705D0CA0503D5226CC2
:102B900042F001022264420705D5DA0703D0226C15
:102BA00042F002022264820705D5DA0703D0226CC4
:102BB00042F004022264020707D501F020023243EA
:102BC00003D0226C42F008022264226C002A34D026
:102BD000800604D5880602D5204600F01EFD206838
:102BE0004069216CC0F38010090700D430B320463F
:102BF00000F0FBFC2068416949061BD5416921F0C2
:102C000040014161A06BA8B158494163A06BFEF738
:102C10002DFE002811D0A06B416B01B0BDE8F04043
:102C2000084783060FD58B060DD52046BDE8F84032
:102C300000F0F3BC2046FFF794FFF8BD2046FFF7F5
:102C400090FF2564F8BD266B2023012E52D1C606C5
:102C500050D5CE064ED51068506800905069400699
:102C60002AD5A16B086840680004000CEAD0A68D44
:102C70008642E7D9E0858869202818D0D06820F4FA
:102C80008070D0602068416921F0010141612068B5
:102C9000416921F04001416184F83E30256320689C
:102CA000C16821F01001C160A06BFEF7BBFDA08DD3
:102CB000E18D401A81B219E0A08DE18D401A81B2F8
:102CC000E08D0028BED00029BCD0D06820F49070E0
:102CD000D0602068426922F00102426184F83E30EF
:102CE00025632068C26822F01002C2602046FFF708
:102CF00037FFF8BD05062BD50D0629D594F83D0004
:102D00002128F6D1A068B0F5805F01D12069B0B16B
:102D1000206A411C2162216800784860E08C401ED6
:102D20000004000CE084E4D12068C16821F0800137
:102D3000C1602068C16841F04001C160F8BD206AEF
:102D40000088C0F308005060206A801C2062E5E71C
:102D50004006F3D54806F1D5D168204621F0400160
:102D6000D16084F83D3000F008F9F8BDDB3500088B
:102D700070B5040004D094F83D00002510B106E0C1
:102D8000012070BD84F83C50204600F023F8242038
:102D900084F83D002068C16821F40051C1602046DC
:102DA00000F096FC2068016921F4904101612068DF
:102DB000416921F02A0141612068C16841F4005154
:102DC000C1602564202084F83D0084F83E00002086
:102DD00070BD000030B585B00024009401940294C9
:102DE000039400681B49884232D11B48816941F431
:102DF00080418161816901F480410491816941F0E0
:102E0000080181618069154D00F0080004904020A0
:102E10000090022001900320039069462846FEF7A7
:102E2000BFFE8020CDE90004694628460294FEF7E3
:102E3000B7FE0B48416841F0E06141F00401416098
:102E4000002211462520FFF711F82520FFF700F892
:102E500005B030BD0038014000100240000C0140B8
:102E60000000014090F83E30202B0ED159B152B1F4
:102E700090F83C30012B08D0012380F83C3000232F
:102E8000036300F081BC01207047022070470000FE
:102E900000680A49884210D109490A780D2A04D0ED
:102EA000084B48781A54401C00E000204870054840
:102EB000012203496638FFF7D5BF7047003801404B
:102EC00000000020B60300202DE9F843044690F8E6
:102ED0003D001F4616460D4620284CD1C5B1BEB157
:102EE00094F83C00012846D0012084F83C004FF0C3
:102EF0000008C4F84080212084F83D00FEF74AFF16
:102F0000A6848146E684A068B0F5805F03D004E023
:102F10000120BDE8F883206928B12E465FF0000546
:102F200084F83C800EE00026FAE78021204600F07D
:102F300046FCA0B9AEB116F8010B21684860E08CE0
:102F4000401EE084E08C4B464FF0000200970028C2
:102F5000EBD14FF04001204600F031FC30B10320AE
:102F6000D7E735F8020BC0F30800E6E7202084F825
:102F70003D000020CDE70220CBE77047FEE70000D0
:102F8000FEB500242F48009401942D49029401605D
:102F900089158160012505730475072606614FF4C4
:102FA00060214460C161FEF7D1FA08B172B6FEE754
:102FB0008DE8700069462348FEF746FA08B172B6FC
:102FC000FEE70224CDE9005469461E48FEF73CFAAC
:102FD00008B172B6FEE700940324694619480194CB
:102FE000FEF732FA08B172B6FEE70094042469468F
:102FF00014480194FEF728FA08B172B6FEE700946F
:10300000052469460F480194FEF71EFA08B172B60E
:10301000FEE70620CDE9004069460A48FEF714FAAB
:1030200008B172B6FEE70820CDE9000669460548FA
:10303000FEF70AFA002801D072B6FEE7FEBD0000D6
:103040000024014000020020F0B585B000242A4889
:103050000094019402940394816941F020018161FC
:10306000816901F020010491816941F004018161CD
:10307000816901F004010491816941F008018161D5
:1030800080691E4F00F00800049000224FF20201F8
:103090003846FEF77AFE02250126CDE9005669463C
:1030A0003846CDE90245FEF77BFD4FF470400090B5
:1030B000CDE90165694638460395FEF771FD4FF489
:1030C000C050CDE9000469460D480294FEF768FD42
:1030D000202000900B48CDE9010469463846FEF7F0
:1030E0005FFD002201211720FEF7C0FE1720FEF72A
:1030F000AFFE05B0F0BD000000100240000C014022
:10310000000801400000311010B596B000240F9463
:1031100010941194129413941C2168461494FDF792
:1031200013F9202107A8FDF70FF92C482A4901605F
:103130004821C0E901146421C0E903148021C0E9D9
:103140000541FFF729FA08B172B6FEE74FF4805047
:103150000F900FA92148FFF795FA08B172B6FEE764
:103160001E48FFF780FC08B172B6FEE7139413A95E
:103170001A481494FFF7DCF908B172B6FEE7602034
:10318000CDE9000402940394049405940022694656
:1031900012480694FFF704FC08B172B6FEE7082255
:1031A00069460E48FFF7FCFB08B172B6FEE70794CC
:1031B000089409944FF400500A94CDE90B4007A9F4
:1031C00006480E94FFF78AF908B172B6FEE7034885
:1031D000FFF7C0FB16B010BD002C014030020020EC
:1031E00010B58CB024216846FDF7AEF800241548D0
:1031F00009944FF080410A94C0E900144FF6FF7122
:10320000C0E90241046184610320CDE9000401208A
:10321000CDE902040494CDE90540079469460948C4
:103220000894FFF79AFA08B172B6FEE7099409A963
:1032300004480A94FFF77CF9002801D072B6FEE733
:103240000CB010BD7802002010B58CB02421684667
:10325000FDF77AF800241648099414490A94C0E945
:1032600000144FF6FF71C0E902410461846103203C
:10327000CDE900040120CDE902040494CDE9054024
:10328000079469460A480894FFF767FA08B172B6CE
:10329000FEE7099409A906480A94FFF749F90028AE
:1032A00001D072B6FEE70CB010BD00000004004073
:1032B000C002002010B586B0002417480094019485
:1032C0000294039404941349059401604721C0E9D2
:1032D00001144FF6FF71C0E903148461FFF75CF934
:1032E00008B172B6FEE74FF48050009069460A4874
:1032F000FFF7C8F908B172B6FEE7049404A90648BE
:103300000594FFF715F9002801D072B6FEE706B064
:1033100010BD00000008004008030020FEE7FEE7A3
:1033200070477047FEF73CBD30B593B02821684622
:10333000FDF70AF814210AA8FDF706F80025012078
:103340000F9510951195010412958DE823000490B6
:103350004FF4E010CDE90810022407946846FEF708
:1033600019FF08B172B6FEE70AA90F2081E8310003
:103370004FF48060CDE90D0502210AA8FEF71EFE7C
:1033800008B172B6FEE74FF4004011900F940FA8F9
:10339000FEF79EFD002801D072B6FEE713B030BDE7
:1033A00070470000F0B50268164B174C174D4FF0F0
:1033B0008047984205D0B84203D0A04201D0A8422D
:1033C00003D122F070064A683243984205D0B842D1
:1033D00003D0A04201D0A84203D122F44074CA68AD
:1033E00022434C6922F08002224302608A68C26252
:1033F0000A688262984201D1096901630121416131
:10340000F0BD0000002C0140000400400008004016
:1034100010B501F01F030121046A99408C43046236
:10342000016A9A401143016210BD10B5846842EAF6
:10343000032224F47F440A432243826010BD826841
:1034400022F070020A4342F00701816070470000D9
:1034500030B5026A22F001020262026A436884699E
:1034600024F073050C682C4322F002058A682A4375
:103470000A4DA8420BD122F00805CA6823F4407314
:103480002A434D6922F004021D438B692B4343609C
:10349000846149684163026230BD0000002C014034
:1034A00030B5026A22F010020262026A436884693F
:1034B0000D6824F4E64444EA05248D6822F02002D5
:1034C00042EA05120B4DA8420ED1CD6822F08002CF
:1034D00042EA05124D6923F4406343EA85038D698E
:1034E00022F0400243EA85034360846149688163B6
:1034F000026230BD002C014030B5026A22F48072B5
:103500000262036A4268C46923F4007324F07305FD
:103510000C682C438D6843EA05230C4DA8420ED15C
:10352000CD6823F4006343EA05234D6922F4405239
:1035300042EA05128D6923F4806342EA0512426073
:10354000C4614968C163036230BD0000002C0140C2
:1035500030B5026A22F480520262046A4268C3698A
:103560000D6823F4E64343EA05238D6824F40054F0
:1035700044EA0534064DA84204D14D6922F4804244
:1035800042EA85124260C36149680164046230BD49
:10359000002C014010B5036A046A24F0010404629F
:1035A000846924F0F00444EA021423F00A020A4376
:1035B0008461026210BD10B5036A23F01003036238
:1035C0008369046A23F4704343EA023224F0A003BF
:1035D00043EA01118261016210BD10B5406A002109
:1035E000C185C184FFF7BDFA10BD0168CA6822F425
:1035F0009072CA6001684A6922F001024A61016B57
:10360000012904D10168CA6822F01002CA60202191
:1036100080F83E1000210163704708B590F83E1015
:10362000222901D0022008BD82684FF480539A42BB
:1036300001D1016921B1816A9A421BD04AB10AE0E5
:103640000268816A5268C2F308020A80816A891C92
:1036500008E0026972B10268526802F07F020A70E3
:10366000816A491C8162C18D491E0904090CC1850A
:1036700003D019E002685268F1E70168CA6822F0D5
:103680002002CA600168CA6822F48072CA600168B8
:103690004A6922F001024A61202180F83E10016B44
:1036A000012903D0FFF7F4FB002008BD00210163CE
:1036B0000168CA6822F01002CA6001680A68D2066E
:1036C00002D50A6849680091818DFFF749FAEBE756
:1036D00070B5044600680169E26821F44051114365
:1036E00001612169A0680843616908432168CA68CB
:1036F00041F20C639A430243CA6020684169A2699F
:1037000021F44071114341611E492068884202D171
:10371000FEF7FAFC01E0FEF7E7FC00EBC00101EB6D
:103720000012606864218000B2FBF0F3B3FBF1F398
:103730006FF018067343B2FBF0F5B2FBF0F605EB41
:103740008305322303EB0515B5FBF1F5B6FBF1F666
:1037500005F0F00505EB0615B2FBF0F6B2FBF0F054
:10376000B0FBF1F06FF01802504306EB800003EB62
:103770000010B0FBF1F0216800F00F0028448860D1
:1037800070BD00000038014081628285C285002141
:103790000164222280F83E2080F83C100168CA684B
:1037A00042F48072CA6001684A6942F001024A61CB
:1037B0000068C16841F02001C160002070472DE918
:1037C000F041984617460E460446069D1DE0681CCB
:1037D0001BD02DB1FEF7DEFAA0EB0800A84214D9E9
:1037E0002068C16821F4D071C1602068416921F06E
:1037F00001014161202084F83D0084F83E00002052
:1038000084F83C000320BDE8F0812068006836EAB7
:10381000000004D00020B842D9D00020F3E70120F6
:10382000F9E700000148FFF79DB9000050030020B0
:10383000FEE7490050EAC12018BF04204A0D18BF16
:1038400040F0010040F2FF72B2EB515F08BF40F060
:103850000200012808BF052070470907090E00284B
:1038600004DB00F1E02080F80014704700F00F0046
:1038700000F1E02080F8141D704700002DE9F74F9B
:10388000144694B00021C4E902111599079121F062
:103890000045C9498D4206DC1599C4E9000117B0FD
:1038A0000020BDE8F08FC549DFF814A3A9423CDD34
:1038B0000799C44E0029C44FC44A1599534619DDCF
:1038C00002F0F8FC554506D0C14AC24B02F0F2FCAA
:1038D000C4E900010AE04FF0D352BE4B02F0EAFC0B
:1038E00032463B4602F0E6FCC4E9000117B0012075
:1038F000BDE8F08F01F0E0FF554506D0B44AB54B66
:1039000001F0DAFFC4E900010AE04FF0D352B14BF5
:1039100001F0D2FF32463B4601F0CEFFC4E9000180
:1039200017B04FF0FF30BDE8F08FAB49A9421599B1
:1039300078DB21F0004183468846A84AA84B02F074
:1039400093FA0022A74B01F0B7FF02F0C9F90990E2
:1039500002F023FA06460F469C4A534602F084FAC8
:1039600043465A4602F0B4FB80468A46984A994B31
:103970003046394602F078FA2A0D01250B9242466C
:10398000534602F0A5FB032DC4E9000139D00B9882
:10399000C1F30A51401A05EB45111139814230DA61
:1039A0009148C346784400EB0510CDF80CA00C906C
:1039B000D0E900233046394602F056FA02460B465B
:1039C000049106905846039902F074FC80468A469A
:1039D00002460B465846039902F06CFC049B069A7B
:1039E00002F068FC83460C9803913946D0E9022323
:1039F000304602F039FA5A46039B02F05BFC6D1C1C
:103A0000BDE707980028A2BF099817B0BDE8F08F5E
:103A1000616881F000416160099817B04042BDE8DB
:103A2000F08FFFE784461598C1F31301C0F30A50E5
:103A3000A0F2F5304FEA601800F01F06C6F1200032
:103A4000139000200690079041F4801E05206D46DB
:103A500076B1664A08EB00017A4452F8213002EB55
:103A60008101B3404A68139922FA01F1194305E034
:103A70005F4908EB0002794451F82210A1FB0E27A0
:103A8000A1FB0C131A449A4234BF0123002303EB19
:103A9000070A05EB8003D3E901B70F448F4234BF17
:103AA0000121002193448B4411B1934502D903E0D5
:103AB000934501D2012100E00021C3E901B751443F
:103AC00045F82010011EA0F10100C1DC0298059FFD
:103AD00000F10050800F12900298DDE9035680003B
:103AE00002F05BF9834628460D9102F06DF96FF004
:103AF0001D0202F0DCFFCDE90E01304602F064F950
:103B00006FF03D0202F0D3FF80468A46384602F04D
:103B10005BF96FF05D0202F0CAFF0746424653466A
:103B2000119101F0C9FEDDE90E2301F0C5FE5A46F0
:103B30000D9B01F0C1FE00250E465A4628460D9BFE
:103B400002F0B8FBDDE90E2302F0B4FB4246534617
:103B500002F0B0FB3A46119B02F0BAFADFF898A0E7
:103B6000244A534602F080F907468846234A244BEC
:103B70003146284602F078F93A46434601F09CFE69
:103B8000074688464FF0A84253463146284602F081
:103B90006BF93A46434601F08FFE159A12F0004F3A
:103BA00004D0129A81F0004152421292C4E90001FD
:103BB000129817B0BDE8F08FFB21E93F7CD9024095
:103BC000FB21F93F7370032E8A19A33B0000405478
:103BD0003163621A61B4D03DFB21394183C8C96D9C
:103BE000305FE43F0000E03FC83200004432000094
:103BF00026320000182D4454FB21F93D3326A6112E
:103C0000460B113C2DE9FF4D21F0004807460C46BC
:103C1000B8F1795F08DA02F063F8002801BF0020EC
:103C2000324904B0BDE8F08D3A46234610461946A5
:103C300002F01AF9054602462D480E460B460621AB
:103C4000784400F05DF82A46334602F00DF9DDE9CC
:103C5000022382468B463846214602F005F9044687
:103C60000F4652465B462846314602F0FDF8224692
:103C70003B4602F01FFB07468A464FF0FF322846BC
:103C8000314602F014FF1B4A90450ADA3A46534681
:103C900002F010FB04B00022BDE8F04D134B02F01F
:103CA00017BA154A4245A8BFA8F500154FF0000401
:103CB000B8BF124D22462B4602F0FCFA0646884653
:103CC00022462B460020094902F0F4FA04460D462C
:103CD0003A4653463046414602F0ECFA04B02246DA
:103CE0002B46BDE8F04D02F0F3B900000000F03FB4
:103CF000F42F00003333D33F0000E93F0000D23FF0
:103D00002DE9F0414F1E00EBC7010446D1E9000147
:103D100015461E4637F006020DD02A46334602F0FD
:103D2000A3F87F1E04EBC703D3E9002301F0C4FD11
:103D300037F00602F1D1022F25D0042F13D0062F21
:103D400018BFBDE8F0812A46334602F08DF8D4E969
:103D50000A2301F0B1FD2A46334602F085F8D4E982
:103D6000082301F0A9FD2A46334602F07DF8D4E984
:103D7000062301F0A1FD2A46334602F075F8D4E986
:103D8000042301F099FD2A46334602F06DF8D4E988
:103D9000022301F091FD2A46334602F065F8D4E98A
:103DA0000023BDE8F04101F087BD00002DE9FF4D83
:103DB000054621F0004084B00C46B0F1795F0BDA83
:103DC0002846FFF736FD042808BF00F071F82846A2
:103DD00008B02146BDE8F08D2A460B46104602F099
:103DE00043F806460F462A46234602F03DF8804631
:103DF00026488A4632463B4605217844FFF780FF35
:103E000083461098029160B3214A224B40465146A6
:103E100002F02AF8CDE900015A4640465146029B7D
:103E200002F022F882468846DDE906014FF0FF32B3
:103E300002F03DFE5246434602F03CFA32463B4613
:103E400002F012F8DDE9062302F034FADDE900237E
:103E500002F030FA08B02A462346BDE8F04D02F0E1
:103E600037B90B465A463046394601F0FDFF084A3D
:103E7000084B01F021FD4246534601F0F5FF08B022
:103E80002A462346BDE8F04D01F016BD3A2F00004A
:103E9000495555555555C5BF012202F008BE01F0E0
:103EA0000BBD002213461046114601F0C1BD0000B3
:103EB000024A0020110702F0FABD000001FDFFFFD9
:103EC0002DE9F84F04460D4621F00040009173495A
:103ED000814211DC7249884201DC06D12CB12046B6
:103EE0002946BDE8F84FFFF7D7BF6E48002DCCBF7D
:103EF0006D496E49BDE8F88F6D49814211DD6D490C
:103F00008142D8BF4FF0FF366DDD20462946FFF7CE
:103F100090FC042808BFFFF7CBFF20462946BDE8E8
:103F2000F88F6549654F25F00045814233DD6449CE
:103F3000814219DD002632464FF080432046294653
:103F400001F0BAFC80468A4601222046294602F04A
:103F5000AEFD00223B4602F0ADF94246534601F069
:103F600067FD04460D463EE001260022BA463B4668
:103F70002046294601F0A0FC80460F460022534609
:103F80002046294602F096F942463B4601F050FD94
:103F900004460D4627E04B4981421BDDDFF828A18E
:103FA0000226002253462046294601F05DFF0022EA
:103FB0003B4601F081FC80460F46002253462046D6
:103FC000294602F077F942463B4601F031FD0446AE
:103FD0000D4608E0032622462B4600203B4901F00F
:103FE00027FD04460D4622462B461046194601F091
:103FF0003BFF8B46824602460B4601F035FF0746E3
:104000000246334888460B4606217844FFF778FE7F
:1040100052465B4601F028FF82462E488B463A46C0
:10402000434605217844FFF76BFE3A46434601F0CC
:104030001BFF02460B46002E504659460CDA01F093
:104040003BFC22462B4601F00FFF01B022462B46D7
:10405000BDE8F04F02F03CB801F02EFC22462B46A2
:1040600001F002FF1C4A7A4402EBC603D3E90023A5
:1040700002F020F922462B4602F01CF9174A7A4436
:1040800002EBC603D3E9002302F022F8009A002ACB
:10409000B8BF81F00041BDE8F88F00000000104477
:1040A0000000F07F182D4454FB21F93FFB21F9BF9C
:1040B0000000DC3F0000203E0000F33F0000F03F26
:1040C0000000E63F008003400000F83F0000F0BF22
:1040D000FA2B0000B82B0000562B00001E2B00000E
:1040E0002DE9F04D9446CCF1000423F000464CEA53
:1040F0000404524F46EAD4749A46884621F000429E
:10410000BC4206D8454240EA050442EAD474BC42A7
:1041100004D9BDE8F04D6246FFF7C1BEAAF1405593
:10412000A5F17F6555EA0C040BD0022404EAAA74B9
:10413000434DDFF810E144EAD87452EA000B04D092
:104140000CE0BDE8F04DFFF7BBBE002C14BF012C06
:10415000BDE8F08D022C30D0032C32D056EA0C0B87
:104160000AD0BE4220D1BA4209D126F0804622F0C0
:1041700080423346114617E000291ADB25E0DFF8BC
:10418000C8B0FB44002C04BFDBE90001BDE8F08DA2
:10419000012C02BFDBE9000181F00041BDE8F08D98
:1041A000022C0AD0032C0CD0BA4212D1B8F1000F65
:1041B0000BDA23482549BDE8F08D28462449BDE89F
:1041C000F08D28467146BDE8F08D1D482149BDE8B7
:1041D000F08D921B12153C2AC4BF19481D490EDCF4
:1041E000BAF1000FBEBF12F13C0F0020014606DB02
:1041F000624601F01DFC21F00041FFF761FE002C3A
:1042000008BFBDE8F08D012C04BF81F00041BDE87E
:10421000F08D114A114B022C07D002F04BF82A46C0
:10422000BDE8F04D0A4B02F045B802F043F82A46CB
:10423000BDE8F04D064B01F04BBF00000000F07FE1
:10424000182D4454FB2109C0E22A0000FB21F9BFCC
:10425000FB210940FB21F93F075C143326A6A13C52
:1042600000B5244B21F0004287B09A42DCBF002207
:10427000134629DD204B9A4208D140B94FF0010086
:10428000FCF791F8FFF70DFE07B000BD03DBFFF769
:1042900003FE07B000BD02AAFFF7F0FA10F0030119
:1042A00004BF0DF1080C9CE80F000DD0012001297E
:1042B0000ED0022914D00DF1080C00909CE80F00DC
:1042C000FFF774FD07B000BDFFF79CFC07B000BD11
:1042D0000DF1080C00909CE80F00FFF767FD05E06A
:1042E0000DF1080C9CE80F00FFF78CFC07B081F083
:1042F000004100BDFB21E93F0000F07F044900229E
:104300000B685A6209684A6A8242FCD27047000010
:10431000080300202DE9F34FC94D89B005F180074E
:10432000A5F18004FDF736FD2064616C401A01F0B0
:104330004BFD0022C34B01F07BFBC7E91601C248CD
:104340000068406A01F040FD0022C04BC5E9180139
:1043500001F088FE07D2D5E918010022BC4B01F01C
:10436000A9FFC5E91801B64DD5E9180101F072FAA7
:10437000B84902F027FA02F087F80022B64B01F0A4
:1043800057FB6FF0010202F092FBC5E916010646E9
:104390000F46A06902F078F832463B4601F08AFFEA
:1043A000C5E90E01064605F180000F46D0E9162347
:1043B00090469946304601F057FDD5E9102301F0AB
:1043C0007BFAC5E910010391D5E9142382463946E9
:1043D000304601F06FFF42464B4601F029FBC5E92C
:1043E00012018046A5F580708946C06A02F04CF83B
:1043F00042464B4601F038FD8346A5F58070029198
:10440000806A02F041F85246039B01F02DFD804680
:10441000A5F580708946406A02F036F83B46324680
:1044200001F022FD42464B4601F046FA5A46029BF5
:1044300001F042FA01F00EFAA5F58071DFF81CB226
:10444000C864C5E91467864D216CAE146F14DFF89B
:1044500014926164584503DD8349C1F84CB008E00B
:104460008249814A884201D9D1640FE0B0F5000F3A
:104470000CDB7D48C06C02F05DF9286000223146FB
:104480004D464846FDF781FC01220CE0D06C80F0DF
:10449000004002F04FF92860012231464D4648465F
:1044A000FDF773FC002239462846FDF76EFCFDF748
:1044B00071FCA064E16C401A01F086FC0022614BA3
:1044C00001F0B6FA5E4D8035C5E918015E48483006
:1044D0000068406A01F078FC00225C4BC5E90401E9
:1044E00001F0C0FD07D2D5E904010022584B01F0CC
:1044F000E1FEC5E90401D5E9040101F0ABF9554934
:1045000002F060F901F0C0FF0022534B01F090FA75
:104510006FF0010202F0CBFAC5E9020106460F4630
:10452000A246606901F0B0FF32463B4601F0C2FE90
:10453000434C06460F46C4E91A01D5E918239046B4
:10454000059301F091FCD4E91C2301F0B5F9C4E90D
:104550001C0102910890D5E900233046394601F04C
:10456000A9FE4246059B01F063FAC4E91E013E4CD8
:1045700080460591E06A01F087FF4246059B01F005
:1045800073FC03910690A06A01F07EFF029B089ADB
:1045900001F06AFCCDE90401606A01F075FF324662
:1045A0003B4601F061FCDDE9042301F085F9039B42
:1045B000069A01F081F901F04DF9E065C5E900675F
:1045C000274D02464FF48046DAF848105846083521
:1045D0007700CAF84C1082420BDDE06502F0AAF8C1
:1045E0002860012231464C464846FDF7CEFB0022AA
:1045F00010E01E4882421DD9C4F85C0080F00040E3
:1046000002F098F82860002231464C464846FDF7F3
:10461000BCFB012239462046FDF7B7FB3120FDF7F0
:1046200081FA0999CAF818100A99CAF814100BB03F
:10463000BDE8F08FB2F5000F1046CFDADEE70000DC
:104640000001002000408F4078020020C0FFDF40C2
:10465000E0FFEF400000B443006077400000C84234
:10466000342C0140000C0140000000200000C8C2B2
:104670008CB0FDF79DFBFEF757FEFEF7E5FCFEF75D
:1046800043FDFEF7ADFDD048416941F001014161B4
:104690004069002200F00100009011460B20FDF758
:1046A000E5FB0B20FDF7D4FBFEF7CEFDFEF768FC23
:1046B000FEF700FEC648C5494FF0000A01604FF4FE
:1046C000E131C0E9011A0C22C0F80CA0C0E904A233
:1046D000C0F818A0C0F81CA0FEF74AFB08B172B6DB
:1046E000FEE7BB484838FDF7A5FF0821B948FEF7AB
:1046F000E9F9B84804214830FEF7E4F8B448042149
:104700009038FEF7DFF80021B248FEF7DBF9B04938
:1047100007224431A1F5CA70FCF7FEFFAE4C00221F
:104720004FF480512046FDF730FB002261142046F3
:10473000FDF72BFB00224FF480412046FDF725FBBF
:1047400000224FF400412046FDF71FFB42F6E060D7
:10475000FDF7E8F9A14D00242846294600F070F93C
:10476000641C142CF8DB9A489DA2A0A15230FBF7E0
:104770005BFD97485230FBF7C8FD954982B24FF474
:104780007A74234652319248FEF79EFB904898A2D5
:1047900096A15230FBF748FD8D485230FBF7B5FD2E
:1047A0008B4982B2234652318948FEF78DFB8848F7
:1047B0009AA28EA15230FBF737FD85485230FBF7A5
:1047C000A4FD834982B2234652318148FEF77CFB27
:1047D000DFF854827E4C08F1800944344FF4FA77B4
:1047E00008F5C076FDF7D6FAC9F85000D9F854108C
:1047F0004D46401A01F0E8FA00228C4BC6E91A0136
:1048000001F030FC7ED200F0A1FE00F049FBB8F8C8
:10481000060019281BD200F0B1FE0020C5E91600E1
:10482000C5E91800C5E91A00C5E91C0002460146A1
:104830007F48C0E902210021C0E90411C0E9061146
:10484000C0E90811C6E90E11C6E9101191E0E86A45
:10485000012816D10020C5E91600C5E91800C5E9F0
:104860001A00C5E91C00024601467148C0E9022150
:104870000021C0E90411C0E90611C0E90811C5F81A
:104880002CA0A0890390079021880891401A00EB82
:104890004002608961888346401A0591049121890C
:1048A00002EB400202910191A0880A90081A10447C
:1048B00001F05CFFC8F860000199E2880A98594449
:1048C0001044084404990190014407980844089949
:1048D000084401F063FFC8F86400BB4519D9059886
:1048E000B84216D9DDE90210C83800EB4000514A41
:1048F000014402EB4B00084401F038FFC8F86000A7
:10490000019800E039E000F5167001F047FFC8F8A3
:104910006400D8E9180101F04BFE01F0B5FD464AEC
:10492000464B01F0A1FA00F095FF8346C8F86800F5
:104930005946D8F8740002F011F8C8F86C000190DC
:10494000D8F8100001F0A0FD04900091019801F04A
:104950009BFDD6E90A2301F06BF8009B049A01F055
:1049600083FAFFF7ADFA00F075FFC8E91C0B00F001
:10497000EBFC00F021FA286D6865E088B84216D299
:104980006088B84213D2A088B84210D22089B842B9
:104990000DD26089B8420AD22088B84207D2A089D5
:1049A000B84204D20020C6E91000C6E90E00D6E9DC
:1049B0000E0100F04FFF0546D6E9100100F04AFF56
:1049C000294600F03DF80DE7001002400038014094
:1049D0005003002030020020000C0140000048423B
:1049E000434C454152444154410A000025730000A4
:1049F0004C4142454C2C2054696D652C2053746108
:104A0000727465642054696D652C20446174652C52
:104A10002065322C2065332C0000000052455345A0
:104A20005454494D455220000000002000004940E8
:104A300000010020A8FDFFFF5839B4C876BE8F3FA3
:104A40002DE9F34FCF4F81B0A7F18008A7F580740F
:104A5000FDF7A0F92063616B401A01F0B5F900225F
:104A6000C94B00F0E5FFC7E91201C8480068406A79
:104A700001F0AAF945460022C54BC5E9000101F045
:104A8000F1FA07D2D5E900010022C24B01F012FC75
:104A9000C5E90001BB498039D1E9000100F0DAFE27
:104AA00001F0F2FC0022BC4B01F0DEF90022BB4B0E
:104AB00000F0BEFF6FF0010201F0F9FF0022B84BD9
:104AC00000F0B6FFC4E91E0105460E46206901F05C
:104AD000DBFC2A46334601F0EDFBC4E9160105462E
:104AE000A8480E46D0E9122317469846284601F0FA
:104AF000BBF9D4E9182300F0DFFEC4E918010091E6
:104B0000D4E91C2381462846314601F0D3FB3A46BE
:104B1000434600F08DFFC4E91A018046A1480F46C4
:104B2000C06901F0B1FC42463B4601F09DF9824666
:104B30009C488B46806901F0A7FC4A46009B01F027
:104B400093F9074697488846406901F09DFC2A463C
:104B5000334601F089F93A46434600F0ADFE52462D
:104B60005B4600F0A9FE00F075FE8E49874A086298
:104B7000C4E91C56126800215162216B8B4D6163A0
:104B80008949AE146F14884203DD084685490862DE
:104B900008E0874A8349904201D90A620FE0B0F5E4
:104BA000000F0CDB7F48006A01F0C4FD2860814DD6
:104BB000002231462846FDF7E8F801220CE0086A99
:104BC00080F0004001F0B6FD28607A4D01223146A8
:104BD0002846FDF7DAF8002239462846FDF7D5F8D1
:104BE000FDF7D8F8A063E16B401A01F0EDF8002260
:104BF000654B00F01DFFDFF88C91C9E91401634893
:104C000048300068406A01F0DFF8A9F18005002211
:104C10005F4BC5E90C0101F025FA07D2D5E90C017B
:104C200000225C4B01F046FBC5E90C01D5E90C0103
:104C300000F010FE01F028FC0022574B01F014F99F
:104C40000022564B00F0F4FE6FF0010201F02FFF3E
:104C50000022534B00F0ECFEC5E90A0106460F4660
:104C6000A046E06801F010FC32463B4601F022FB12
:104C7000C5E90201D9E9142306460F4693461C46AE
:104C800001F0F2F8D5E9042300F016FEC5E90401AD
:104C9000D5E9082381468A463946304601F00AFBA9
:104CA0005A46234600F0C4FE3E4CC5E90601834641
:104CB0000091A06B01F0E8FB5A46009B01F0D4F88C
:104CC00083460091606B01F0DFFB4A46534601F0DA
:104CD000CBF881468A46206B01F0D6FB3B46324634
:104CE00001F0C2F84A46534600F0E6FD5A46009BE2
:104CF00000F0E2FD00F0AEFD244A0021E0634832FE
:104D0000C5E9086712685162284D27494FF480466B
:104D1000D8F8382008357700C8F83C20884201DDF3
:104D2000E16307E02249884201D9E1630EE0B0F572
:104D3000000F0BDBE06B01F0FDFC28601D4C012235
:104D400031462046FDF721F800220CE0E06B80F0B0
:104D5000004001F0EFFC2860164C0022314620464E
:104D6000FDF713F8012239462046FDF70EF81D2005
:104D7000FCF7D8FE0199C8F810100299C8F80C1079
:104D8000BDE8FE8F8001002000408F4078020020A7
:104D9000C0FFDF40E0FFEF40004CED400060774097
:104DA00000003E40000000200000C842342C0140BA
:104DB0000000C8C2000C014070B52CA232A13348DB
:104DC000FBF732FA3148FBF7A0FA304982B24FF4D0
:104DD0007A752B46A1F15200FEF776F82C4CA06EA6
:104DE00001F052FB02460B462AA12848FBF71CFAA9
:104DF0002648FBF78AFA254982B22B46A1F15200D8
:104E0000FEF762F824A220A12048FBF70DFA1F4804
:104E1000FBF77BFA1D4982B22B46A1F15200FEF747
:104E200053F8206F01F030FB02460B4619A11748DA
:104E3000FBF7FAF91548FBF768FA144982B22B46DA
:104E4000A1F15200FEF740F814A20FA10F48FBF7A2
:104E5000EBF90E48FBF759FA2B46BDE870400B49B9
:104E600082B2A1F15200FEF72FB800004441544134
:104E70002C2054494D452C2054494D45522C20445A
:104E80004154452C0000000025730000A2030020BF
:104E900000000020256600002C0000002C0A000005
:104EA00010B5094CA0886188401A00F076FF074AC7
:104EB000074B00F0D9FF4FF0FF3201F0F8FD00F092
:104EC0003FFFE08010BD0000000000209CC420B027
:104ED0007268A13F2DE9F34FC94D89B005F18007F4
:104EE000A5F18004FCF756FF2064616C401A00F0C5
:104EF0006BFF0022C34B00F09BFDC7E91601C248BF
:104F00000068406A00F060FF0022C04BC5E918014C
:104F100001F0A8F807D2D5E918010022BC4B01F036
:104F2000C9F9C5E91801B64DD5E9180100F092FCA0
:104F3000B84901F047FC01F0A7FA0022B64B00F097
:104F400077FD6FF0010201F0B2FDC5E916010646DA
:104F50000F46A06901F098FA32463B4601F0AAF9E3
:104F6000C5E90E01064605F180000F46D0E916237B
:104F700090469946304600F077FFD5E9102300F0BF
:104F80009BFCC5E910010391D5E9142382463946FB
:104F9000304601F08FF942464B4600F049FDC5E925
:104FA00012018046A5F580708946806C01F06CFA8C
:104FB00042464B4600F058FF8346A5F580700291AB
:104FC000406C01F061FA5246039B00F04DFF8046B1
:104FD000A5F580708946006C01F056FA3B463246D2
:104FE00000F042FF42464B4600F066FC5A46029BE8
:104FF00000F062FC00F02EFCA5F58071DFF81CB219
:10500000C864C5E91467864D216CAE146F14DFF8CF
:1050100014926164584503DD8349C1F84CB008E03F
:105020008249814A884201D9D1640FE0B0F5000F6E
:105030000CDB7D48C06C01F07DFB2860002231460E
:105040004D464846FCF7A1FE01220CE0D06C80F0F2
:10505000004001F06FFB2860012231464D46484672
:10506000FCF793FE002239462846FCF78EFEFCF73B
:1050700091FEA064E16C401A00F0A6FE0022614B94
:1050800000F0D6FC5E4D8035C5E918015E48483019
:105090000068406A00F098FE00225C4BC5E90401FC
:1050A00000F0E0FF07D2D5E904010022584B01F0DF
:1050B00001F9C5E90401D5E9040100F0CBFB55492C
:1050C00001F080FB01F0E0F90022534B00F0B0FC4E
:1050D0006FF0010201F0EBFCC5E9020106460F4644
:1050E000A246606901F0D0F932463B4601F0E2F891
:1050F000434C06460F46C4E91A01D5E918239046E9
:10510000059300F0B1FED4E91C2300F0D5FBC4E9FF
:105110001C0102910890D5E900233046394601F080
:10512000C9F84246059B00F083FCC4E91E013E4CD1
:1051300080460591A06D01F0A7F94246059B00F05D
:1051400093FE03910690606D01F09EF9029B089A10
:1051500000F08AFECDE90401206D01F095F9324698
:105160003B4600F081FEDDE9042300F0A5FB039B34
:10517000069A00F0A1FB00F06DFBE065C5E9006751
:10518000274D02464FF48046DAF848105846083555
:105190007700CAF84C1082420BDDE06501F0CAFAD4
:1051A0002860012231464C464846FCF7EEFD0022BD
:1051B00010E01E4882421DD9C4F85C0080F0004017
:1051C00001F0B8FA2860002231464C464846FCF708
:1051D000DCFD012239462046FCF7D7FD3120FCF7E3
:1051E000A1FC0999CAF818100A99CAF814100BB052
:1051F000BDE8F08FB2F5000F1046CFDADEE7000011
:105200000001002000408F4078020020C0FFDF40F6
:10521000E0FFEF400000B443006077400000C84268
:10522000342C0140000C0140000000200000C8C2E6
:1052300070B5002204460D46134600F013FF01D25C
:10524000012070BD002213462046294600F0D0FD03
:1052500002D24FF0FF3070BD002070BD00B5254B6D
:1052600021F0004287B09A4203DC002213460092EC
:105270002BE0214B9A4208D140B94FF00100FBF7D7
:1052800092F8FEF70EFE07B000BD03DBFEF704FE4A
:1052900007B000BD02AAFEF7F1FA10F003014FF0CB
:1052A00001000DD0012914D002291AD00DF1080CEB
:1052B0009CE80F00FEF7A6FC07B081F0004100BD9E
:1052C0000DF1080C00909CE80F00FEF76FFD07B091
:1052D00000BD0DF1080C9CE80F00FEF793FC07B031
:1052E00000BD0DF1080C00909CE80F00FEF75EFD7C
:1052F000E2E70000FB21E93F0000F07F2DE9F041EB
:1053000006460F4600F0F0FE041E0D4618BF0120B1
:10531000284320F00040C0F17F6000F1E040C00F62
:105320000ED0301C18BF0120384320F00040C0F1DF
:105330007F6000F1E040C00F04BF0120FBF733F8AD
:1053400020462946BDE8F0812DE9FE4FDFF8F481C3
:10535000A8F5C076A8F5807A306901F095F80C467A
:10536000F1680546084601F02DFAB16E0746084679
:1053700001F028FA394601F0B3F801F085F8FFF79B
:10538000BDFF2A46234600F053FB4446C4E906010C
:10539000306901F079F881460F46F06801F074F841
:1053A00080460D46B06E01F06FF842462B46FEF780
:1053B00097FE4A463B4600F03BFBC4E90801F16812
:1053C000B06F01F0FFF901F05FF805460F46306F4E
:1053D00001F05AF8FEF744FFD4E9062300F044FD3B
:1053E0002A463B4600F068FAC4E90A015546DAF855
:1053F000280001F049F881468A46306F01F044F8F0
:10540000FFF72CFF80460F46286801F03DF8424622
:105410003B4600F029FD07468846B16EF06F01F06B
:10542000D1F901F031F83A46434600F045FAD4E9A3
:10543000062300F019FD4A46534600F015FDD4E955
:10544000082300F039FAC4E90C0106460F46A868A3
:1054500001F01AF802460B46304627F0004100F0F2
:1054600001FE0CD2D4E90C01FFF7E2FE01F07EF957
:10547000A96801F0A7F901F007F8C4E90C01686810
:1054800001F002F80246D4E90A0323F000460B4675
:10549000314600F0E7FD0CD2D4E90A01FFF7C8FE5F
:1054A00001F064F9696801F08DF900F0EDFFC4E9DD
:1054B0000A010121686A01F028FB0146224801F037
:1054C00077F800F0E1FF06460F464FF0FF31E8693C
:1054D00001F01BFB00F0D8FFD4E90C2300F0C4FC62
:1054E0000291D4E90A2380469246994600F0F0FDE5
:1054F000834601914FF07E50296A01F059F800F07F
:10550000C3FF05465A460091019B00F0ADFC3246B0
:105510003B4600F0A9FCC4E90E01404652464B460A
:10552000029900F0C9F902460B462846009900F09E
:105530009BFC32463B4600F097FCC4E91001BDE8F5
:10554000FE8F0000800100200000704210B5094C61
:10555000012202212046FCF718FC0A20FEF7CEFEAD
:10556000002202212046FCF710FC034900200968B4
:10557000486210BD000C0140080300202DE9F05FD7
:10558000DFF87892002609F58074C9F86860C9F8D8
:105590007060C4E91A66C4E91C66C4E91E6604F1B9
:1055A000800B58460021C0E90066C0E90211CBF823
:1055B0001010CBF81410C4E90E11C4E91011C4E99D
:1055C0001211C4E91411C4E91611C4E91811A4F1A7
:1055D0008005DFF82C826E61DFF828A20F46AE61ED
:1055E00041465046FFF776FCFFF7E6FB7F1C142F81
:1055F000F6DB854800684662DFF80CA20AF1480A2B
:10560000DAF8000046626E610020AE61C4E91A005B
:10561000C4E91C005F46C4E91E00C7E90000C7E9F1
:105620000200C7E90400C4E90E00C4E91000C4E99F
:105630001200C4E91400C4E91600C4E91800A84621
:10564000DFF8C8B1054658465946FEF763FEFFF736
:10565000B3FB6D1C142DF6DBDFF8ACB1DBF80000FA
:105660004662DAF800004662C8F814600020C8F804
:105670001860C4E91A00C4E91C00C4E91E0002460F
:10568000014638464546C0E900210021C0E9021123
:1056900039617961C4E90E11C4E91011C4E912112C
:1056A000C4E91411C4E91611C4E91811B8460F462B
:1056B00057495848FFF70EFCFFF77EFB7F1C142F5D
:1056C000F6DBDBF800004662DAF8000046620027ED
:1056D0000020C5E91600C5E91800C5E91A00C5E9AA
:1056E0001C00C4E90200C4E90400C4E90600C4E9DE
:1056F00008000146FFF7A4F9FFF75EFB7F1C0A2FA5
:10570000E6DB0020C5E91600C5E91800C5E91A0066
:10571000C5E91C00C4E90200C4E90400C4E90600AC
:10572000C4E908003C4F4FF4FA7A00BFFFF70EFFC0
:10573000FFF7B6FB0020C5E91600C5E91800C5E96A
:105740001A00C5E91C00C4E90200C4E90400C4E968
:105750000600C4E90800788950450BD22F48C9F8E3
:1057600020600146C9F83C60FFF76AF9FFF724FBA7
:10577000EE62DBE700206E61AE61C4E91A00C4E9A5
:105780001C00C4E91E00024601464046244FC0E901
:1057900000210021C0E90211C8F81010C8F8141047
:1057A000C4E90E11C4E91011C4E91211C4E91411BD
:1057B000C4E91611C4E91811DFF868800E463946AD
:1057C0004046FFF787FBFFF7F7FA761C142EF6DB4F
:1057D0000120E8620020C5E91600C5E91800C5E906
:1057E0001A00C5E91C00C4E90200C4E90400C4E9C8
:1057F0000600C4E908002820BDE8F09F0000002052
:1058000000000CC300000C43780200200000484454
:1058100000007543000075C3940300200000484257
:10582000000016C30000164310B500290AD00878FE
:10583000002807D005487844FBF730F9002801D04C
:10584000002010BD0248784410BD0000DE150000A5
:10585000D615000021F00042A2F16052B2F5801F7F
:1058600001F0004328BFD2F17F6C0BD95FEA001C26
:1058700043EAC20242EB507018BF704728BF20F0C5
:1058800001007047B2F5801FBCBF184670474FEA51
:10589000410C1CF5001F02D2084601F05AB870B541
:1058A00000F08CFB00000089FFF7F6BF4FF00040CE
:1058B000A0F580007047000010B591EA030F48BFC3
:1058C00083F0004300F1FE84841A71EB030C05D2CF
:1058D000121943EB0C03001B61EB0C01DFF824E110
:1058E0004FEA1154A4EB135C1EEA430F18BF9EEA63
:1058F000445F73D023EA0E03DCF1200E21EA045149
:1059000043F4801332D322FA0CFE10EB0E0023FA7C
:105910000CFE41EB0E01CCF1200E03FA0EFE10EB53
:105920000E0051F10001B1F5801FCCF1200E32D2F2
:1059300001EB045112FA0EF2BDE8104058BF704757
:10594000401C38BF5FEA420218BF7047002814BFEE
:1059500020F0010041F100014FEA410313F5001F5F
:1059600038BF7047A1F1C04100F076BB012A43EB7C
:105970000302ACF1200CDCF11F0E32BF4FF0000E21
:1059800023FA0CF310EB030041EB0451B4EB115F6D
:10599000D0D0A1EB045101F5801149085FEA300035
:1059A00001EB04510ED350F1000038BF12FA0EFE85
:1059B00008D1BDE81040C9E7401C38BF5FEA420289
:1059C000CAD1C3E7BDE810404FEA410313F5001FF9
:1059D00038BF7047A1F1C04100F03EBB9EEA445F72
:1059E00008D011EA5E0FBDE8104004BF01F000418D
:1059F00000207047BDE8104070B500F0DFFA00BF2E
:105A000064FBBE3E0000E0FF02494FF0000001F0E1
:105A10001CB800BF0000F87F491058BFC1F14041D9
:105A20005B1058BFC3F140438B42EFF300807047D7
:105A30002DE9C04130B4DFF8A0C23CEA111418BF10
:105A40003CEA131400F0EC8081EA03051CEA11140F
:105A500044EAD57418BF1CEA131500F0C780A4EB04
:105A600005044FF0004545EAC12145EAC32341EA58
:105A7000505143EA525304F17F74994204F50034C3
:105A80004FEAC0204FEAC22208BF904200F09C803B
:105A90004FEA13650FF24016765D4FEA134506FB99
:105AA00005F7C7F1807706FB07F74FEAD737A7FB63
:105AB00003687642C8F58038A7FB06CE38BFA8F148
:105AC000010807FB08E64FF0000EA6FB028CE6FB80
:105AD00003CEDCF1000CCEF1004E38BFAEF1010E6A
